{
  "transactions": [
    {
      "hash": "0x74be029bef2240a64cc3dca3f48f613d69dc3ed40b496ff904b4111c9961e5a0",
      "transactionType": "CALL",
      "contractName": "PrivacyVault",
      "contractAddress": "0x018f6558d8f81b319ae33618ac7bfdc3ac23df8c",
      "function": "setCountryBlocked(string,bool)",
      "arguments": [
        "USA",
        "true"
      ],
      "transaction": {
        "from": "0x4a3f4d82a075434b24ff2920c573c704af776f6a",
        "to": "0x018f6558d8f81b319ae33618ac7bfdc3ac23df8c",
        "gas": "0x10359",
        "value": "0x0",
        "input": "0x7c7c56e30000000000000000000000000000000000000000000000000000000000000040000000000000000000000000000000000000000000000000000000000000000100000000000000000000000000000000000000000000000000000000000000035553410000000000000000000000000000000000000000000000000000000000",
        "nonce": "0xb",
        "chainId": "0xaa044c"
      },
      "additionalContracts": [],
      "isFixedGasLimit": false
    },
    {
      "hash": "0x086a33ac27884b81d40ebae73ea2ec22aa02d99664fa624b572057178f13852d",
      "transactionType": "CALL",
      "contractName": "PrivacyVault",
      "contractAddress": "0x018f6558d8f81b319ae33618ac7bfdc3ac23df8c",
      "function": "setCountryBlocked(string,bool)",
      "arguments": [
        "IRN",
        "true"
      ],
      "transaction": {
        "from": "0x4a3f4d82a075434b24ff2920c573c704af776f6a",
        "to": "0x018f6558d8f81b319ae33618ac7bfdc3ac23df8c",
        "gas": "0x10359",
        "value": "0x0",
        "input": "0x7c7c56e300000000000000000000000000000000000000000000000000000000000000400000000000000000000000000000000000000000000000000000000000000001000000000000000000000000000000000000000000000000000000000000000349524e0000000000000000000000000000000000000000000000000000000000",
        "nonce": "0xc",
        "chainId": "0xaa044c"
      },
      "additionalContracts": [],
      "isFixedGasLimit": false
    },
    {
      "hash": "0x48a2d62116241bf03dbf645935f43886af2f3fd2ffb46f0bcc161938017696a8",
      "transactionType": "CALL",
      "contractName": "PrivacyVault",
      "contractAddress": "0x018f6558d8f81b319ae33618ac7bfdc3ac23df8c",
      "function": "setCountryBlocked(string,bool)",
      "arguments": [
        "PRK",
        "true"
      ],
      "transaction": {
        "from": "0x4a3f4d82a075434b24ff2920c573c704af776f6a",
        "to": "0x018f6558d8f81b319ae33618ac7bfdc3ac23df8c",
        "gas": "0x10359",
        "value": "0x0",
        "input": "0x7c7c56e300000000000000000000000000000000000000000000000000000000000000400000000000000000000000000000000000000000000000000000000000000001000000000000000000000000000000000000000000000000000000000000000350524b0000000000000000000000000000000000000000000000000000000000",
        "nonce": "0xd",
        "chainId": "0xaa044c"
      },
      "additionalContracts": [],
      "isFixedGasLimit": false
    }
  ],
  "receipts": [
    {
      "status": "0x1",
      "cumulativeGasUsed": "0x16fb0",
      "logs": [
        {
          "address": "0x018f6558d8f81b319ae33618ac7bfdc3ac23df8c",
          "topics": [
            "0xe538f10b685f0aad30d2a9dda087d66862176ccbd96ee6a298a3322f3c1bc47d",
            "0x49c6e58c6575a5d882a961ebdf6ae361f3277f3b663db933086d11a62f44d90a"
          ],
          "data": "0x0000000000000000000000000000000000000000000000000000000000000001",
          "blockHash": "0xb86179df3c26a6fc75d8ca9c05fdd68f03efabc62e388a17b4b648bff4105ea5",
          "blockNumber": "0x70ab7f",
          "transactionHash": "0x74be029bef2240a64cc3dca3f48f613d69dc3ed40b496ff904b4111c9961e5a0",
          "transactionIndex": "0x1",
          "logIndex": "0x0",
          "removed": false
        }
      ],
      "logsBloom": "0x00000000000000000000000000000000000000080000000000000000008000000000000080000000000000000000000000000000000000000000000000000000000000002000000000000000000000000000000000000000000000000000000000000000000000000000000000000000000000000000000000000000000000000000000000000000100000000000000000100000000000000000000000000000040000000000000000000008000000000000000000000000000000000000000000000000000000000000000000000000000000000000000000000000000000000000000000000000000000000000000000000040000000000000000000000000",
      "type": "0x2",
      "transactionHash": "0x74be029bef2240a64cc3dca3f48f613d69dc3ed40b496ff904b4111c9961e5a0",
      "transactionIndex": "0x1",
      "blockHash": "0xb86179df3c26a6fc75d8ca9c05fdd68f03efabc62e388a17b4b648bff4105ea5",
      "blockNumber": "0x70ab7f",
      "gasUsed": "0xbbc4",
      "effectiveGasPrice": "0x5d22cfc40",
      "from": "0x4a3f4d82a075434b24ff2920c573c704af776f6a",
      "to": "0x018f6558d8f81b319ae33618ac7bfdc3ac23df8c",
      "contractAddress": null,
      "l1BaseFeeScalar": "0x0",
      "l1BlobBaseFee": "0x1",
      "l1BlobBaseFeeScalar": "0x0",
      "l1Fee": "0x0",
      "l1GasPrice": "0x9",
      "l1GasUsed": "0x640"
    },
    {
      "status": "0x1",
      "cumulativeGasUsed": "0x22b74",
      "logs": [
        {
          "address": "0x018f6558d8f81b319ae33618ac7bfdc3ac23df8c",
          "topics": [
            "0xe538f10b685f0aad30d2a9dda087d66862176ccbd96ee6a298a3322f3c1bc47d",
            "0xb587b05c03bba4244f3e124b7ad63a2bc8ea7a28bc2183d1c6f550a3a622fd03"
          ],
          "data": "0x0000000000000000000000000000000000000000000000000000000000000001",
          "blockHash": "0xb86179df3c26a6fc75d8ca9c05fdd68f03efabc62e388a17b4b648bff4105ea5",
          "blockNumber": "0x70ab7f",
          "transactionHash": "0x086a33ac27884b81d40ebae73ea2ec22aa02d99664fa624b572057178f13852d",
          "transactionIndex": "0x2",
          "logIndex": "0x1",
          "removed": false
        }
      ],
      "logsBloom": "0x00000000000000000000000000000000000000080000000000000000008000000000000080000000000000000000000000000000000000000000000000000000000000000000000000000000000000000000000000000000000000000000000000000000000000000000000000000000000000000000004000000000000000000000000000000000000000000008000000000000000000000000000000000000040000000000000000000008000000002000000000000000000000000000000000000000000000000000000000000000000000000000000000000000000000000000000000000000000000000000000000000040000000000000000000000000",
      "type": "0x2",
      "transactionHash": "0x086a33ac27884b81d40ebae73ea2ec22aa02d99664fa624b572057178f13852d",
      "transactionIndex": "0x2",
      "blockHash": "0xb86179df3c26a6fc75d8ca9c05fdd68f03efabc62e388a17b4b648bff4105ea5",
      "blockNumber": "0x70ab7f",
      "gasUsed": "0xbbc4",
      "effectiveGasPrice": "0x5d22cfc40",
      "from": "0x4a3f4d82a075434b24ff2920c573c704af776f6a",
      "to": "0x018f6558d8f81b319ae33618ac7bfdc3ac23df8c",
      "contractAddress": null,
      "l1BaseFeeScalar": "0x0",
      "l1BlobBaseFee": "0x1",
      "l1BlobBaseFeeScalar": "0x0",
      "l1Fee": "0x0",
      "l1GasPrice": "0x9",
      "l1GasUsed": "0x640"
    },
    {
      "status": "0x1",
      "cumulativeGasUsed": "0x2e738",
      "logs": [
        {
          "address": "0x018f6558d8f81b319ae33618ac7bfdc3ac23df8c",
          "topics": [
            "0xe538f10b685f0aad30d2a9dda087d66862176ccbd96ee6a298a3322f3c1bc47d",
            "0xa146fab96f6fc131c843763af0e3594bab3d211a30e4caba164450cbaa9ceb11"
          ],
          "data": "0x0000000000000000000000000000000000000000000000000000000000000001",
          "blockHash": "0xb86179df3c26a6fc75d8ca9c05fdd68f03efabc62e388a17b4b648bff4105ea5",
          "blockNumber": "0x70ab7f",
          "transactionHash": "0x48a2d62116241bf03dbf645935f43886af2f3fd2ffb46f0bcc161938017696a8",
          "transactionIndex": "0x3",
          "logIndex": "0x2",
          "removed": false
        }
      ],
      "logsBloom": "0x00000000000000000000000000000000000000080000000000000000008000000000000080000000000000000000000000000000000000000000000000000400000000000000000000000000000000000000000000000000000000000000000000000000000000000000000000000000000000000000000000000000000000000000000000000000000000000004000000000000000000000000000000000000040000000000000000000008000000000000080000000000000000000000000000000000000000000000000000000000000000000000000000000000000000000000000000000000000000000000000000000040000000000000000000000000",
      "type": "0x2",
      "transactionHash": "0x48a2d62116241bf03dbf645935f43886af2f3fd2ffb46f0bcc161938017696a8",
      "transactionIndex": "0x3",
      "blockHash": "0xb86179df3c26a6fc75d8ca9c05fdd68f03efabc62e388a17b4b648bff4105ea5",
      "blockNumber": "0x70ab7f",
      "gasUsed": "0xbbc4",
      "effectiveGasPrice": "0x5d22cfc40",
      "from": "0x4a3f4d82a075434b24ff2920c573c704af776f6a",
      "to": "0x018f6558d8f81b319ae33618ac7bfdc3ac23df8c",
      "contractAddress": null,
      "l1BaseFeeScalar": "0x0",
      "l1BlobBaseFee": "0x1",
      "l1BlobBaseFeeScalar": "0x0",
      "l1Fee": "0x0",
      "l1GasPrice": "0x9",
      "l1GasUsed": "0x640"
    }
  ],
  "libraries": [],
  "pending": [],
  "returns": {},
  "timestamp": 1760667924914,
  "chain": 11142220,
  "commit": "e441663"
}