{
  "transactions": [
    {
      "hash": "0xca3deb5ca7056e763820f14cf7fe324bcc2c915c9da78a561939d90624661bde",
      "transactionType": "CALL",
      "contractName": "PrivacyVault",
      "contractAddress": "0x63127a6f30f0762e3e9bb467af1edffbe0c24cb3",
      "function": "setCountryBlocked(string,bool)",
      "arguments": [
        "USA",
        "true"
      ],
      "transaction": {
        "from": "0x4a3f4d82a075434b24ff2920c573c704af776f6a",
        "to": "0x63127a6f30f0762e3e9bb467af1edffbe0c24cb3",
        "gas": "0x10359",
        "value": "0x0",
        "input": "0x7c7c56e30000000000000000000000000000000000000000000000000000000000000040000000000000000000000000000000000000000000000000000000000000000100000000000000000000000000000000000000000000000000000000000000035553410000000000000000000000000000000000000000000000000000000000",
        "nonce": "0x10",
        "chainId": "0xaa044c"
      },
      "additionalContracts": [],
      "isFixedGasLimit": false
    },
    {
      "hash": "0xef5521536a82f65809156bb403d2d50aa4f8560b24cb63b1f1ffabe16cd10275",
      "transactionType": "CALL",
      "contractName": "PrivacyVault",
      "contractAddress": "0x63127a6f30f0762e3e9bb467af1edffbe0c24cb3",
      "function": "setCountryBlocked(string,bool)",
      "arguments": [
        "IRN",
        "true"
      ],
      "transaction": {
        "from": "0x4a3f4d82a075434b24ff2920c573c704af776f6a",
        "to": "0x63127a6f30f0762e3e9bb467af1edffbe0c24cb3",
        "gas": "0x10359",
        "value": "0x0",
        "input": "0x7c7c56e300000000000000000000000000000000000000000000000000000000000000400000000000000000000000000000000000000000000000000000000000000001000000000000000000000000000000000000000000000000000000000000000349524e0000000000000000000000000000000000000000000000000000000000",
        "nonce": "0x11",
        "chainId": "0xaa044c"
      },
      "additionalContracts": [],
      "isFixedGasLimit": false
    },
    {
      "hash": "0x07c8ebca286c16d873325a917fef3a3336ac9e6cac9157fa0b473490f5ccb031",
      "transactionType": "CALL",
      "contractName": "PrivacyVault",
      "contractAddress": "0x63127a6f30f0762e3e9bb467af1edffbe0c24cb3",
      "function": "setCountryBlocked(string,bool)",
      "arguments": [
        "PRK",
        "true"
      ],
      "transaction": {
        "from": "0x4a3f4d82a075434b24ff2920c573c704af776f6a",
        "to": "0x63127a6f30f0762e3e9bb467af1edffbe0c24cb3",
        "gas": "0x10359",
        "value": "0x0",
        "input": "0x7c7c56e300000000000000000000000000000000000000000000000000000000000000400000000000000000000000000000000000000000000000000000000000000001000000000000000000000000000000000000000000000000000000000000000350524b0000000000000000000000000000000000000000000000000000000000",
        "nonce": "0x12",
        "chainId": "0xaa044c"
      },
      "additionalContracts": [],
      "isFixedGasLimit": false
    }
  ],
  "receipts": [
    {
      "status": "0x1",
      "cumulativeGasUsed": "0x16fb0",
      "logs": [
        {
          "address": "0x63127a6f30f0762e3e9bb467af1edffbe0c24cb3",
          "topics": [
            "0xe538f10b685f0aad30d2a9dda087d66862176ccbd96ee6a298a3322f3c1bc47d",
            "0x49c6e58c6575a5d882a961ebdf6ae361f3277f3b663db933086d11a62f44d90a"
          ],
          "data": "0x0000000000000000000000000000000000000000000000000000000000000001",
          "blockHash": "0x93c7fe0120e329a7fbc35cff96cd0f4eb937aa9a910f59149c6a45e2659cd276",
          "blockNumber": "0x70ba6b",
          "transactionHash": "0xca3deb5ca7056e763820f14cf7fe324bcc2c915c9da78a561939d90624661bde",
          "transactionIndex": "0x1",
          "logIndex": "0x0",
          "removed": false
        }
      ],
      "logsBloom": "0x00000000000000000000000000000000200000000000000000000000008000000000000000000000000000000000000000000000000000000000000000000000000000002000000000000000000000000000000000000000000000000000000000000000000000000000000000000000000000000000000000000000000000000000000000000000100000000000000000100000000000000000000000000000040000000000000000000000000000000000000000000000000000000000000000000000000000000000000000000000000000000000000000000000000000100000000000000000000000000000000000000040000000000000000000000400",
      "type": "0x2",
      "transactionHash": "0xca3deb5ca7056e763820f14cf7fe324bcc2c915c9da78a561939d90624661bde",
      "transactionIndex": "0x1",
      "blockHash": "0x93c7fe0120e329a7fbc35cff96cd0f4eb937aa9a910f59149c6a45e2659cd276",
      "blockNumber": "0x70ba6b",
      "gasUsed": "0xbbc4",
      "effectiveGasPrice": "0x5d21dba01",
      "from": "0x4a3f4d82a075434b24ff2920c573c704af776f6a",
      "to": "0x63127a6f30f0762e3e9bb467af1edffbe0c24cb3",
      "contractAddress": null,
      "l1BaseFeeScalar": "0x0",
      "l1BlobBaseFee": "0x1",
      "l1BlobBaseFeeScalar": "0x0",
      "l1Fee": "0x0",
      "l1GasPrice": "0xa",
      "l1GasUsed": "0x640"
    },
    {
      "status": "0x1",
      "cumulativeGasUsed": "0x22b74",
      "logs": [
        {
          "address": "0x63127a6f30f0762e3e9bb467af1edffbe0c24cb3",
          "topics": [
            "0xe538f10b685f0aad30d2a9dda087d66862176ccbd96ee6a298a3322f3c1bc47d",
            "0xb587b05c03bba4244f3e124b7ad63a2bc8ea7a28bc2183d1c6f550a3a622fd03"
          ],
          "data": "0x0000000000000000000000000000000000000000000000000000000000000001",
          "blockHash": "0x93c7fe0120e329a7fbc35cff96cd0f4eb937aa9a910f59149c6a45e2659cd276",
          "blockNumber": "0x70ba6b",
          "transactionHash": "0xef5521536a82f65809156bb403d2d50aa4f8560b24cb63b1f1ffabe16cd10275",
          "transactionIndex": "0x2",
          "logIndex": "0x1",
          "removed": false
        }
      ],
      "logsBloom": "0x00000000000000000000000000000000200000000000000000000000008000000000000000000000000000000000000000000000000000000000000000000000000000000000000000000000000000000000000000000000000000000000000000000000000000000000000000000000000000000000004000000000000000000000000000000000000000000008000000000000000000000000000000000000040000000000000000000000000000002000000000000000000000000000000000000000000000000000000000000000000000000000000000000000000000100000000000000000000000000000000000000040000000000000000000000400",
      "type": "0x2",
      "transactionHash": "0xef5521536a82f65809156bb403d2d50aa4f8560b24cb63b1f1ffabe16cd10275",
      "transactionIndex": "0x2",
      "blockHash": "0x93c7fe0120e329a7fbc35cff96cd0f4eb937aa9a910f59149c6a45e2659cd276",
      "blockNumber": "0x70ba6b",
      "gasUsed": "0xbbc4",
      "effectiveGasPrice": "0x5d21dba01",
      "from": "0x4a3f4d82a075434b24ff2920c573c704af776f6a",
      "to": "0x63127a6f30f0762e3e9bb467af1edffbe0c24cb3",
      "contractAddress": null,
      "l1BaseFeeScalar": "0x0",
      "l1BlobBaseFee": "0x1",
      "l1BlobBaseFeeScalar": "0x0",
      "l1Fee": "0x0",
      "l1GasPrice": "0xa",
      "l1GasUsed": "0x640"
    },
    {
      "status": "0x1",
      "cumulativeGasUsed": "0x2e738",
      "logs": [
        {
          "address": "0x63127a6f30f0762e3e9bb467af1edffbe0c24cb3",
          "topics": [
            "0xe538f10b685f0aad30d2a9dda087d66862176ccbd96ee6a298a3322f3c1bc47d",
            "0xa146fab96f6fc131c843763af0e3594bab3d211a30e4caba164450cbaa9ceb11"
          ],
          "data": "0x0000000000000000000000000000000000000000000000000000000000000001",
          "blockHash": "0x93c7fe0120e329a7fbc35cff96cd0f4eb937aa9a910f59149c6a45e2659cd276",
          "blockNumber": "0x70ba6b",
          "transactionHash": "0x07c8ebca286c16d873325a917fef3a3336ac9e6cac9157fa0b473490f5ccb031",
          "transactionIndex": "0x3",
          "logIndex": "0x2",
          "removed": false
        }
      ],
      "logsBloom": "0x00000000000000000000000000000000200000000000000000000000008000000000000000000000000000000000000000000000000000000000000000000400000000000000000000000000000000000000000000000000000000000000000000000000000000000000000000000000000000000000000000000000000000000000000000000000000000000004000000000000000000000000000000000000040000000000000000000000000000000000080000000000000000000000000000000000000000000000000000000000000000000000000000000000000000100000000000000000000000000000000000000040000000000000000000000400",
      "type": "0x2",
      "transactionHash": "0x07c8ebca286c16d873325a917fef3a3336ac9e6cac9157fa0b473490f5ccb031",
      "transactionIndex": "0x3",
      "blockHash": "0x93c7fe0120e329a7fbc35cff96cd0f4eb937aa9a910f59149c6a45e2659cd276",
      "blockNumber": "0x70ba6b",
      "gasUsed": "0xbbc4",
      "effectiveGasPrice": "0x5d21dba01",
      "from": "0x4a3f4d82a075434b24ff2920c573c704af776f6a",
      "to": "0x63127a6f30f0762e3e9bb467af1edffbe0c24cb3",
      "contractAddress": null,
      "l1BaseFeeScalar": "0x0",
      "l1BlobBaseFee": "0x1",
      "l1BlobBaseFeeScalar": "0x0",
      "l1Fee": "0x0",
      "l1GasPrice": "0xa",
      "l1GasUsed": "0x640"
    }
  ],
  "libraries": [],
  "pending": [],
  "returns": {},
  "timestamp": 1760671743567,
  "chain": 11142220,
  "commit": "e441663"
}