{
  "transactions": [
    {
      "hash": "0x6a4859e625fbd5b3e5625a7e85d5f02eb228096600e9fa296929285bcab518b7",
      "transactionType": "CALL",
      "contractName": null,
      "contractAddress": "0x950650fda9c97c24aa90c6f0c3e8d9ddba4a48fb",
      "function": "setCountryBlocked(string,bool)",
      "arguments": [
        "MEX",
        "true"
      ],
      "transaction": {
        "from": "0x4a3f4d82a075434b24ff2920c573c704af776f6a",
        "to": "0x950650fda9c97c24aa90c6f0c3e8d9ddba4a48fb",
        "gas": "0x105df",
        "value": "0x0",
        "input": "0x7c7c56e30000000000000000000000000000000000000000000000000000000000000040000000000000000000000000000000000000000000000000000000000000000100000000000000000000000000000000000000000000000000000000000000034d45580000000000000000000000000000000000000000000000000000000000",
        "nonce": "0x1",
        "chainId": "0xaa044c"
      },
      "additionalContracts": [],
      "isFixedGasLimit": false
    }
  ],
  "receipts": [
    {
      "status": "0x1",
      "cumulativeGasUsed": "0x17178",
      "logs": [
        {
          "address": "0x950650fda9c97c24aa90c6f0c3e8d9ddba4a48fb",
          "topics": [
            "0xe538f10b685f0aad30d2a9dda087d66862176ccbd96ee6a298a3322f3c1bc47d",
            "0xa4903534910018f3be4f3cee190f26d4c3fd130d1da02e6b5808980ee289252b"
          ],
          "data": "0x0000000000000000000000000000000000000000000000000000000000000001",
          "blockHash": "0xe9debb92e2cc8cbd2633c9be61608765b05b3209785c5ed83ae9bd70681dd588",
          "blockNumber": "0x702423",
          "transactionHash": "0x6a4859e625fbd5b3e5625a7e85d5f02eb228096600e9fa296929285bcab518b7",
          "transactionIndex": "0x1",
          "logIndex": "0x0",
          "removed": false
        }
      ],
      "logsBloom": "0x00000000000000000000000000000000080000000000000000000000008000000000000000000000000000000000000000000000000000000000000000000000000000000000000000000000000000000000000000000000000000000000000000000040000000000000000000000000000000000000000000000000000000000000000000010000000000000000000000000000000000000000000000000000040000000000000000000000000000000000000001000000000000000080000000000000000000000000000000000000000000000000000000000000000000000000000000000004000000000000000000000040000000000000000000000000",
      "type": "0x2",
      "transactionHash": "0x6a4859e625fbd5b3e5625a7e85d5f02eb228096600e9fa296929285bcab518b7",
      "transactionIndex": "0x1",
      "blockHash": "0xe9debb92e2cc8cbd2633c9be61608765b05b3209785c5ed83ae9bd70681dd588",
      "blockNumber": "0x702423",
      "gasUsed": "0xbd98",
      "effectiveGasPrice": "0x5d21dba01",
      "from": "0x4a3f4d82a075434b24ff2920c573c704af776f6a",
      "to": "0x950650fda9c97c24aa90c6f0c3e8d9ddba4a48fb",
      "contractAddress": null,
      "l1BaseFeeScalar": "0x0",
      "l1BlobBaseFee": "0x1",
      "l1BlobBaseFeeScalar": "0x0",
      "l1Fee": "0x0",
      "l1GasPrice": "0x9",
      "l1GasUsed": "0x640"
    }
  ],
  "libraries": [],
  "pending": [],
  "returns": {},
  "timestamp": 1760633270984,
  "chain": 11142220,
  "commit": "947ff57"
}