{
  "transactions": [
    {
      "hash": "0x068068cff3f0455dcf90fd8e60b93886ad5e965a911078d6a61af7237006bfce",
      "transactionType": "CALL",
      "contractName": null,
      "contractAddress": "0x950650fda9c97c24aa90c6f0c3e8d9ddba4a48fb",
      "function": "setCountryBlocked(string,bool)",
      "arguments": [
        "MEX",
        "true"
      ],
      "transaction": {
        "from": "0x4a3f4d82a075434b24ff2920c573c704af776f6a",
        "to": "0x950650fda9c97c24aa90c6f0c3e8d9ddba4a48fb",
        "gas": "0x9a80",
        "value": "0x0",
        "input": "0x7c7c56e30000000000000000000000000000000000000000000000000000000000000040000000000000000000000000000000000000000000000000000000000000000100000000000000000000000000000000000000000000000000000000000000034d45580000000000000000000000000000000000000000000000000000000000",
        "nonce": "0x3",
        "chainId": "0xaa044c"
      },
      "additionalContracts": [],
      "isFixedGasLimit": false
    },
    {
      "hash": "0x8762c35b58bc90b7d64a324e4b2103a08358a660584df0c1f7d5c94c50dc93d8",
      "transactionType": "CALL",
      "contractName": null,
      "contractAddress": "0x950650fda9c97c24aa90c6f0c3e8d9ddba4a48fb",
      "function": "setCountryBlocked(string,bool)",
      "arguments": [
        "COL",
        "true"
      ],
      "transaction": {
        "from": "0x4a3f4d82a075434b24ff2920c573c704af776f6a",
        "to": "0x950650fda9c97c24aa90c6f0c3e8d9ddba4a48fb",
        "gas": "0x105df",
        "value": "0x0",
        "input": "0x7c7c56e3000000000000000000000000000000000000000000000000000000000000004000000000000000000000000000000000000000000000000000000000000000010000000000000000000000000000000000000000000000000000000000000003434f4c0000000000000000000000000000000000000000000000000000000000",
        "nonce": "0x4",
        "chainId": "0xaa044c"
      },
      "additionalContracts": [],
      "isFixedGasLimit": false
    },
    {
      "hash": "0xc1ec2ce340322a52d5848fda55b407b946fb17738acb72fe14b569ff43ce1202",
      "transactionType": "CALL",
      "contractName": null,
      "contractAddress": "0x950650fda9c97c24aa90c6f0c3e8d9ddba4a48fb",
      "function": "setCountryBlocked(string,bool)",
      "arguments": [
        "ARG",
        "true"
      ],
      "transaction": {
        "from": "0x4a3f4d82a075434b24ff2920c573c704af776f6a",
        "to": "0x950650fda9c97c24aa90c6f0c3e8d9ddba4a48fb",
        "gas": "0x105df",
        "value": "0x0",
        "input": "0x7c7c56e30000000000000000000000000000000000000000000000000000000000000040000000000000000000000000000000000000000000000000000000000000000100000000000000000000000000000000000000000000000000000000000000034152470000000000000000000000000000000000000000000000000000000000",
        "nonce": "0x5",
        "chainId": "0xaa044c"
      },
      "additionalContracts": [],
      "isFixedGasLimit": false
    },
    {
      "hash": "0x8143316c46bcc76362df22fcdc2bbe4e127e238ebf5f718c4e70e46a7f36f02e",
      "transactionType": "CALL",
      "contractName": null,
      "contractAddress": "0x950650fda9c97c24aa90c6f0c3e8d9ddba4a48fb",
      "function": "setCountryBlocked(string,bool)",
      "arguments": [
        "ARG",
        "false"
      ],
      "transaction": {
        "from": "0x4a3f4d82a075434b24ff2920c573c704af776f6a",
        "to": "0x950650fda9c97c24aa90c6f0c3e8d9ddba4a48fb",
        "gas": "0x8fa6",
        "value": "0x0",
        "input": "0x7c7c56e30000000000000000000000000000000000000000000000000000000000000040000000000000000000000000000000000000000000000000000000000000000000000000000000000000000000000000000000000000000000000000000000034152470000000000000000000000000000000000000000000000000000000000",
        "nonce": "0x6",
        "chainId": "0xaa044c"
      },
      "additionalContracts": [],
      "isFixedGasLimit": false
    }
  ],
  "receipts": [
    {
      "status": "0x1",
      "cumulativeGasUsed": "0x123bc",
      "logs": [
        {
          "address": "0x950650fda9c97c24aa90c6f0c3e8d9ddba4a48fb",
          "topics": [
            "0xe538f10b685f0aad30d2a9dda087d66862176ccbd96ee6a298a3322f3c1bc47d",
            "0xa4903534910018f3be4f3cee190f26d4c3fd130d1da02e6b5808980ee289252b"
          ],
          "data": "0x0000000000000000000000000000000000000000000000000000000000000001",
          "blockHash": "0x0588d5f18421d4556f5b1e2c27a67dbf8e9f26f84c9a355426ced74a014692ce",
          "blockNumber": "0x702575",
          "transactionHash": "0x068068cff3f0455dcf90fd8e60b93886ad5e965a911078d6a61af7237006bfce",
          "transactionIndex": "0x1",
          "logIndex": "0x0",
          "removed": false
        }
      ],
      "logsBloom": "0x00000000000000000000000000000000080000000000000000000000008000000000000000000000000000000000000000000000000000000000000000000000000000000000000000000000000000000000000000000000000000000000000000000040000000000000000000000000000000000000000000000000000000000000000000010000000000000000000000000000000000000000000000000000040000000000000000000000000000000000000001000000000000000080000000000000000000000000000000000000000000000000000000000000000000000000000000000004000000000000000000000040000000000000000000000000",
      "type": "0x2",
      "transactionHash": "0x068068cff3f0455dcf90fd8e60b93886ad5e965a911078d6a61af7237006bfce",
      "transactionIndex": "0x1",
      "blockHash": "0x0588d5f18421d4556f5b1e2c27a67dbf8e9f26f84c9a355426ced74a014692ce",
      "blockNumber": "0x702575",
      "gasUsed": "0x6fdc",
      "effectiveGasPrice": "0x5d21dba01",
      "from": "0x4a3f4d82a075434b24ff2920c573c704af776f6a",
      "to": "0x950650fda9c97c24aa90c6f0c3e8d9ddba4a48fb",
      "contractAddress": null,
      "l1BaseFeeScalar": "0x0",
      "l1BlobBaseFee": "0x1",
      "l1BlobBaseFeeScalar": "0x0",
      "l1Fee": "0x0",
      "l1GasPrice": "0x9",
      "l1GasUsed": "0x640"
    },
    {
      "status": "0x1",
      "cumulativeGasUsed": "0x1e154",
      "logs": [
        {
          "address": "0x950650fda9c97c24aa90c6f0c3e8d9ddba4a48fb",
          "topics": [
            "0xe538f10b685f0aad30d2a9dda087d66862176ccbd96ee6a298a3322f3c1bc47d",
            "0x078788366b6ecceafb28f7483e47ee035ac909126483e270a5b618baad576723"
          ],
          "data": "0x0000000000000000000000000000000000000000000000000000000000000001",
          "blockHash": "0x0588d5f18421d4556f5b1e2c27a67dbf8e9f26f84c9a355426ced74a014692ce",
          "blockNumber": "0x702575",
          "transactionHash": "0x8762c35b58bc90b7d64a324e4b2103a08358a660584df0c1f7d5c94c50dc93d8",
          "transactionIndex": "0x2",
          "logIndex": "0x1",
          "removed": false
        }
      ],
      "logsBloom": "0x00000000000000000000000000000000084000000000000000000000008000000000000000000000000000000000000000000000000000000000000000040000000000000000000000000000000000000000000000000000000000000000000000000000000000000000000000000000000000000000000000000000000000000000000000000000000000000000000000000000000000000002000000000000040000000000000000000000000000000000000000000000000000000080000000000000000000000000000000000000000000000000000000000000000000000000000000000004000000000000000000000040000000000000000000000000",
      "type": "0x2",
      "transactionHash": "0x8762c35b58bc90b7d64a324e4b2103a08358a660584df0c1f7d5c94c50dc93d8",
      "transactionIndex": "0x2",
      "blockHash": "0x0588d5f18421d4556f5b1e2c27a67dbf8e9f26f84c9a355426ced74a014692ce",
      "blockNumber": "0x702575",
      "gasUsed": "0xbd98",
      "effectiveGasPrice": "0x5d21dba01",
      "from": "0x4a3f4d82a075434b24ff2920c573c704af776f6a",
      "to": "0x950650fda9c97c24aa90c6f0c3e8d9ddba4a48fb",
      "contractAddress": null,
      "l1BaseFeeScalar": "0x0",
      "l1BlobBaseFee": "0x1",
      "l1BlobBaseFeeScalar": "0x0",
      "l1Fee": "0x0",
      "l1GasPrice": "0x9",
      "l1GasUsed": "0x640"
    },
    {
      "status": "0x1",
      "cumulativeGasUsed": "0x29eec",
      "logs": [
        {
          "address": "0x950650fda9c97c24aa90c6f0c3e8d9ddba4a48fb",
          "topics": [
            "0xe538f10b685f0aad30d2a9dda087d66862176ccbd96ee6a298a3322f3c1bc47d",
            "0x73423ff7bbf24f26662f84f1ab3d14334103a5250d07b587eef31eb0516f1f73"
          ],
          "data": "0x0000000000000000000000000000000000000000000000000000000000000001",
          "blockHash": "0x0588d5f18421d4556f5b1e2c27a67dbf8e9f26f84c9a355426ced74a014692ce",
          "blockNumber": "0x702575",
          "transactionHash": "0xc1ec2ce340322a52d5848fda55b407b946fb17738acb72fe14b569ff43ce1202",
          "transactionIndex": "0x3",
          "logIndex": "0x2",
          "removed": false
        }
      ],
      "logsBloom": "0x00000000008000000000000000000000080000000000000080000000008000000000000000000000000000000000000000000000000000000000000000000000000000000000000000000000000000000000000000000000000000000000000000000000000000000000000000000000000000000000000000000000000000000000000000000000000000000000000000000000000000000000000000000000040000000000000000000000000000000000000000000000000000000080000000000000000000000000000000000000000000000000000000000000000000000000008000000004000000000000000000000040000000000000000000000000",
      "type": "0x2",
      "transactionHash": "0xc1ec2ce340322a52d5848fda55b407b946fb17738acb72fe14b569ff43ce1202",
      "transactionIndex": "0x3",
      "blockHash": "0x0588d5f18421d4556f5b1e2c27a67dbf8e9f26f84c9a355426ced74a014692ce",
      "blockNumber": "0x702575",
      "gasUsed": "0xbd98",
      "effectiveGasPrice": "0x5d21dba01",
      "from": "0x4a3f4d82a075434b24ff2920c573c704af776f6a",
      "to": "0x950650fda9c97c24aa90c6f0c3e8d9ddba4a48fb",
      "contractAddress": null,
      "l1BaseFeeScalar": "0x0",
      "l1BlobBaseFee": "0x1",
      "l1BlobBaseFeeScalar": "0x0",
      "l1Fee": "0x0",
      "l1GasPrice": "0x9",
      "l1GasUsed": "0x640"
    },
    {
      "status": "0x1",
      "cumulativeGasUsed": "0x306ec",
      "logs": [
        {
          "address": "0x950650fda9c97c24aa90c6f0c3e8d9ddba4a48fb",
          "topics": [
            "0xe538f10b685f0aad30d2a9dda087d66862176ccbd96ee6a298a3322f3c1bc47d",
            "0x73423ff7bbf24f26662f84f1ab3d14334103a5250d07b587eef31eb0516f1f73"
          ],
          "data": "0x0000000000000000000000000000000000000000000000000000000000000000",
          "blockHash": "0x0588d5f18421d4556f5b1e2c27a67dbf8e9f26f84c9a355426ced74a014692ce",
          "blockNumber": "0x702575",
          "transactionHash": "0x8143316c46bcc76362df22fcdc2bbe4e127e238ebf5f718c4e70e46a7f36f02e",
          "transactionIndex": "0x4",
          "logIndex": "0x3",
          "removed": false
        }
      ],
      "logsBloom": "0x00000000008000000000000000000000080000000000000080000000008000000000000000000000000000000000000000000000000000000000000000000000000000000000000000000000000000000000000000000000000000000000000000000000000000000000000000000000000000000000000000000000000000000000000000000000000000000000000000000000000000000000000000000000040000000000000000000000000000000000000000000000000000000080000000000000000000000000000000000000000000000000000000000000000000000000008000000004000000000000000000000040000000000000000000000000",
      "type": "0x2",
      "transactionHash": "0x8143316c46bcc76362df22fcdc2bbe4e127e238ebf5f718c4e70e46a7f36f02e",
      "transactionIndex": "0x4",
      "blockHash": "0x0588d5f18421d4556f5b1e2c27a67dbf8e9f26f84c9a355426ced74a014692ce",
      "blockNumber": "0x702575",
      "gasUsed": "0x6800",
      "effectiveGasPrice": "0x5d21dba01",
      "from": "0x4a3f4d82a075434b24ff2920c573c704af776f6a",
      "to": "0x950650fda9c97c24aa90c6f0c3e8d9ddba4a48fb",
      "contractAddress": null,
      "l1BaseFeeScalar": "0x0",
      "l1BlobBaseFee": "0x1",
      "l1BlobBaseFeeScalar": "0x0",
      "l1Fee": "0x0",
      "l1GasPrice": "0x9",
      "l1GasUsed": "0x640"
    }
  ],
  "libraries": [],
  "pending": [],
  "returns": {},
  "timestamp": 1760633609542,
  "chain": 11142220,
  "commit": "947ff57"
}